{
  "contractName": "Recover",
  "abi": [
    {
      "constant": true,
      "inputs": [
        {
          "name": "",
          "type": "address"
        }
      ],
      "name": "owners",
      "outputs": [
        {
          "name": "description",
          "type": "string"
        }
      ],
      "payable": false,
      "stateMutability": "view",
      "type": "function"
    },
    {
      "constant": true,
      "inputs": [
        {
          "name": "",
          "type": "bytes32"
        }
      ],
      "name": "goods",
      "outputs": [
        {
          "name": "owner",
          "type": "address"
        },
        {
          "name": "rewardAmount",
          "type": "uint256"
        },
        {
          "name": "addressForEncryption",
          "type": "address"
        },
        {
          "name": "descriptionEncryptedLink",
          "type": "string"
        },
        {
          "name": "amountLocked",
          "type": "uint256"
        },
        {
          "name": "timeoutLocked",
          "type": "uint256"
        },
        {
          "name": "ownerFee",
          "type": "uint256"
        },
        {
          "name": "exists",
          "type": "bool"
        }
      ],
      "payable": false,
      "stateMutability": "view",
      "type": "function"
    },
    {
      "constant": true,
      "inputs": [
        {
          "name": "",
          "type": "uint256"
        }
      ],
      "name": "disputeIDtoClaimAcceptedID",
      "outputs": [
        {
          "name": "",
          "type": "uint256"
        }
      ],
      "payable": false,
      "stateMutability": "view",
      "type": "function"
    },
    {
      "constant": true,
      "inputs": [
        {
          "name": "",
          "type": "bytes32"
        }
      ],
      "name": "goodIDtoClaimAcceptedID",
      "outputs": [
        {
          "name": "",
          "type": "uint256"
        }
      ],
      "payable": false,
      "stateMutability": "view",
      "type": "function"
    },
    {
      "inputs": [
        {
          "name": "_arbitrator",
          "type": "address"
        },
        {
          "name": "_arbitratorExtraData",
          "type": "bytes"
        },
        {
          "name": "_feeTimeout",
          "type": "uint256"
        }
      ],
      "payable": false,
      "stateMutability": "nonpayable",
      "type": "constructor"
    },
    {
      "anonymous": false,
      "inputs": [
        {
          "indexed": true,
          "name": "_transactionID",
          "type": "uint256"
        },
        {
          "indexed": false,
          "name": "_party",
          "type": "uint8"
        }
      ],
      "name": "HasToPayFee",
      "type": "event"
    },
    {
      "anonymous": false,
      "inputs": [
        {
          "indexed": true,
          "name": "goodID",
          "type": "bytes32"
        },
        {
          "indexed": true,
          "name": "finder",
          "type": "address"
        },
        {
          "indexed": false,
          "name": "claimID",
          "type": "uint256"
        }
      ],
      "name": "GoodClaimed",
      "type": "event"
    },
    {
      "anonymous": false,
      "inputs": [
        {
          "indexed": true,
          "name": "_metaEvidenceID",
          "type": "uint256"
        },
        {
          "indexed": false,
          "name": "_evidence",
          "type": "string"
        }
      ],
      "name": "MetaEvidence",
      "type": "event"
    },
    {
      "anonymous": false,
      "inputs": [
        {
          "indexed": true,
          "name": "_arbitrator",
          "type": "address"
        },
        {
          "indexed": true,
          "name": "_disputeID",
          "type": "uint256"
        },
        {
          "indexed": false,
          "name": "_metaEvidenceID",
          "type": "uint256"
        },
        {
          "indexed": false,
          "name": "_evidenceGroupID",
          "type": "uint256"
        }
      ],
      "name": "Dispute",
      "type": "event"
    },
    {
      "anonymous": false,
      "inputs": [
        {
          "indexed": true,
          "name": "_arbitrator",
          "type": "address"
        },
        {
          "indexed": true,
          "name": "_evidenceGroupID",
          "type": "uint256"
        },
        {
          "indexed": true,
          "name": "_party",
          "type": "address"
        },
        {
          "indexed": false,
          "name": "_evidence",
          "type": "string"
        }
      ],
      "name": "Evidence",
      "type": "event"
    },
    {
      "anonymous": false,
      "inputs": [
        {
          "indexed": true,
          "name": "_arbitrator",
          "type": "address"
        },
        {
          "indexed": true,
          "name": "_disputeID",
          "type": "uint256"
        },
        {
          "indexed": false,
          "name": "_ruling",
          "type": "uint256"
        }
      ],
      "name": "Ruling",
      "type": "event"
    },
    {
      "constant": false,
      "inputs": [
        {
          "name": "_goodID",
          "type": "bytes32"
        },
        {
          "name": "_addressForEncryption",
          "type": "address"
        },
        {
          "name": "_descriptionEncryptedLink",
          "type": "string"
        },
        {
          "name": "_rewardAmount",
          "type": "uint256"
        },
        {
          "name": "_timeoutLocked",
          "type": "uint256"
        }
      ],
      "name": "addGood",
      "outputs": [],
      "payable": false,
      "stateMutability": "nonpayable",
      "type": "function"
    },
    {
      "constant": false,
      "inputs": [
        {
          "name": "_goodID",
          "type": "bytes32"
        },
        {
          "name": "_addressForEncryption",
          "type": "address"
        },
        {
          "name": "_descriptionEncryptedLink",
          "type": "string"
        }
      ],
      "name": "changeAddressAndDescriptionEncrypted",
      "outputs": [],
      "payable": false,
      "stateMutability": "nonpayable",
      "type": "function"
    },
    {
      "constant": false,
      "inputs": [
        {
          "name": "_goodID",
          "type": "bytes32"
        },
        {
          "name": "_rewardAmount",
          "type": "uint256"
        }
      ],
      "name": "changeRewardAmount",
      "outputs": [],
      "payable": false,
      "stateMutability": "nonpayable",
      "type": "function"
    },
    {
      "constant": false,
      "inputs": [
        {
          "name": "_goodID",
          "type": "bytes32"
        },
        {
          "name": "_timeoutLocked",
          "type": "uint256"
        }
      ],
      "name": "changeTimeoutLocked",
      "outputs": [],
      "payable": false,
      "stateMutability": "nonpayable",
      "type": "function"
    },
    {
      "constant": false,
      "inputs": [
        {
          "name": "_goodID",
          "type": "bytes32"
        }
      ],
      "name": "resetClaims",
      "outputs": [],
      "payable": false,
      "stateMutability": "nonpayable",
      "type": "function"
    },
    {
      "constant": false,
      "inputs": [
        {
          "name": "_goodID",
          "type": "bytes32"
        },
        {
          "name": "_finder",
          "type": "address"
        },
        {
          "name": "_descriptionLink",
          "type": "string"
        }
      ],
      "name": "claim",
      "outputs": [],
      "payable": false,
      "stateMutability": "nonpayable",
      "type": "function"
    },
    {
      "constant": true,
      "inputs": [
        {
          "name": "_goodID",
          "type": "bytes32"
        },
        {
          "name": "_finder",
          "type": "address"
        },
        {
          "name": "_descriptionLink",
          "type": "string"
        },
        {
          "name": "v",
          "type": "uint8"
        },
        {
          "name": "r",
          "type": "bytes32"
        },
        {
          "name": "s",
          "type": "bytes32"
        }
      ],
      "name": "validateClaimMetaTransaction",
      "outputs": [
        {
          "name": "errorReason",
          "type": "string"
        }
      ],
      "payable": false,
      "stateMutability": "view",
      "type": "function"
    },
    {
      "constant": false,
      "inputs": [
        {
          "name": "_goodID",
          "type": "bytes32"
        },
        {
          "name": "_finder",
          "type": "address"
        },
        {
          "name": "_descriptionLink",
          "type": "string"
        },
        {
          "name": "v",
          "type": "uint8"
        },
        {
          "name": "r",
          "type": "bytes32"
        },
        {
          "name": "s",
          "type": "bytes32"
        }
      ],
      "name": "claimMetaTransaction",
      "outputs": [],
      "payable": false,
      "stateMutability": "nonpayable",
      "type": "function"
    },
    {
      "constant": false,
      "inputs": [
        {
          "name": "_goodID",
          "type": "bytes32"
        },
        {
          "name": "_claimID",
          "type": "uint256"
        }
      ],
      "name": "acceptClaim",
      "outputs": [],
      "payable": true,
      "stateMutability": "payable",
      "type": "function"
    },
    {
      "constant": false,
      "inputs": [
        {
          "name": "_goodID",
          "type": "bytes32"
        },
        {
          "name": "_claimID",
          "type": "uint256"
        }
      ],
      "name": "removeClaim",
      "outputs": [],
      "payable": false,
      "stateMutability": "nonpayable",
      "type": "function"
    },
    {
      "constant": false,
      "inputs": [
        {
          "name": "_goodID",
          "type": "bytes32"
        },
        {
          "name": "_amount",
          "type": "uint256"
        }
      ],
      "name": "pay",
      "outputs": [],
      "payable": false,
      "stateMutability": "nonpayable",
      "type": "function"
    },
    {
      "constant": false,
      "inputs": [
        {
          "name": "_goodID",
          "type": "bytes32"
        },
        {
          "name": "_amountReimbursed",
          "type": "uint256"
        }
      ],
      "name": "reimburse",
      "outputs": [],
      "payable": false,
      "stateMutability": "nonpayable",
      "type": "function"
    },
    {
      "constant": false,
      "inputs": [
        {
          "name": "_goodID",
          "type": "bytes32"
        }
      ],
      "name": "executeTransaction",
      "outputs": [],
      "payable": false,
      "stateMutability": "nonpayable",
      "type": "function"
    },
    {
      "constant": false,
      "inputs": [
        {
          "name": "_goodID",
          "type": "bytes32"
        }
      ],
      "name": "payArbitrationFeeByOwner",
      "outputs": [],
      "payable": true,
      "stateMutability": "payable",
      "type": "function"
    },
    {
      "constant": false,
      "inputs": [
        {
          "name": "_goodID",
          "type": "bytes32"
        }
      ],
      "name": "payArbitrationFeeByFinder",
      "outputs": [],
      "payable": true,
      "stateMutability": "payable",
      "type": "function"
    },
    {
      "constant": false,
      "inputs": [
        {
          "name": "_goodID",
          "type": "bytes32"
        }
      ],
      "name": "timeOutByOwner",
      "outputs": [],
      "payable": false,
      "stateMutability": "nonpayable",
      "type": "function"
    },
    {
      "constant": false,
      "inputs": [
        {
          "name": "_goodID",
          "type": "bytes32"
        }
      ],
      "name": "timeOutByFinder",
      "outputs": [],
      "payable": false,
      "stateMutability": "nonpayable",
      "type": "function"
    },
    {
      "constant": false,
      "inputs": [
        {
          "name": "_goodID",
          "type": "bytes32"
        },
        {
          "name": "_evidence",
          "type": "string"
        }
      ],
      "name": "submitEvidence",
      "outputs": [],
      "payable": false,
      "stateMutability": "nonpayable",
      "type": "function"
    },
    {
      "constant": false,
      "inputs": [
        {
          "name": "_goodID",
          "type": "bytes32"
        }
      ],
      "name": "appeal",
      "outputs": [],
      "payable": true,
      "stateMutability": "payable",
      "type": "function"
    },
    {
      "constant": false,
      "inputs": [
        {
          "name": "_disputeID",
          "type": "uint256"
        },
        {
          "name": "_ruling",
          "type": "uint256"
        }
      ],
      "name": "rule",
      "outputs": [],
      "payable": false,
      "stateMutability": "nonpayable",
      "type": "function"
    },
    {
      "constant": true,
      "inputs": [
        {
          "name": "_goodID",
          "type": "bytes32"
        }
      ],
      "name": "isGoodExist",
      "outputs": [
        {
          "name": "",
          "type": "bool"
        }
      ],
      "payable": false,
      "stateMutability": "view",
      "type": "function"
    }
  ],
  "bytecode": "0x60806040523480156200001157600080fd5b50604051620051a0380380620051a083398101806040528101908080519060200190929190805182019291906020018051906020019092919050505082600560006101000a81548173ffffffffffffffffffffffffffffffffffffffff021916908373ffffffffffffffffffffffffffffffffffffffff1602179055508160069080519060200190620000a6929190620000ce565b508060078190555060048054809190600101620000c4919062000155565b505050506200028d565b828054600181600116156101000203166002900490600052602060002090601f016020900481019282601f106200011157805160ff191683800117855562000142565b8280016001018555821562000142579182015b828111156200014157825182559160200191906001019062000124565b5b5090506200015191906200018a565b5090565b8154818355818111156200018557600702816007028360005260206000209182019101620001849190620001b2565b5b505050565b620001af91905b80821115620001ab57600081600090555060010162000191565b5090565b90565b6200023e91905b808211156200023a576000808201600090556001820160006101000a81549073ffffffffffffffffffffffffffffffffffffffff021916905560028201600062000204919062000241565b6003820160009055600482016000905560058201600090556006820160006101000a81549060ff021916905550600701620001b9565b5090565b90565b50805460018160011615610100020316600290046000825580601f106200026957506200028a565b601f0160209004906000526020600020908101906200028991906200018a565b5b50565b614f03806200029d6000396000f300608060405260043610610149576000357c0100000000000000000000000000000000000000000000000000000000900463ffffffff168063022914a71461014e578063053a40721461020a57806314f83d751461022e5780631d8bc46e1461025f5780632fc0e09b1461028d578063311a6c56146103c657806337aa94fc146103fd5780633db655801461043857806353b3f320146104f85780635a7e9a141461051c578063888d6194146105b357806399ce919c146105e4578063b09e60581461071b578063b3b2b04014610756578063c30d808e146107ed578063c69ed5f214610828578063ca7d2ce714610859578063d0ee4de01461088a578063d9cac344146108c5578063db7ca9d714610970578063dde27071146109b1578063e674d674146109fa578063ece1de4414610a35578063f48a0b3114610a59578063fdc8e4cd14610ad0575b600080fd5b34801561015a57600080fd5b5061018f600480360381019080803573ffffffffffffffffffffffffffffffffffffffff169060200190929190505050610b15565b6040518080602001828103825283818151815260200191508051906020019080838360005b838110156101cf5780820151818401526020810190506101b4565b50505050905090810190601f1680156101fc5780820380516001836020036101000a031916815260200191505b509250505060405180910390f35b61022c6004803603810190808035600019169060200190929190505050610bcb565b005b34801561023a57600080fd5b5061025d6004803603810190808035600019169060200190929190505050611203565b005b61028b6004803603810190808035600019169060200190929190803590602001909291905050506113d8565b005b34801561029957600080fd5b5061034b6004803603810190808035600019169060200190929190803573ffffffffffffffffffffffffffffffffffffffff169060200190929190803590602001908201803590602001908080601f0160208091040260200160405190810160405280939291908181526020018383808284378201915050505050509192919290803560ff169060200190929190803560001916906020019092919080356000191690602001909291905050506115bd565b6040518080602001828103825283818151815260200191508051906020019080838360005b8381101561038b578082015181840152602081019050610370565b50505050905090810190601f1680156103b85780820380516001836020036101000a031916815260200191505b509250505060405180910390f35b3480156103d257600080fd5b506103fb60048036038101908080359060200190929190803590602001909291905050506119d5565b005b34801561040957600080fd5b50610436600480360381019080803560001916906020019092919080359060200190929190505050611c2a565b005b34801561044457600080fd5b506104f66004803603810190808035600019169060200190929190803573ffffffffffffffffffffffffffffffffffffffff169060200190929190803590602001908201803590602001908080601f0160208091040260200160405190810160405280939291908181526020018383808284378201915050505050509192919290803560ff16906020019092919080356000191690602001909291908035600019169060200190929190505050611d1e565b005b61051a6004803603810190808035600019169060200190929190505050611e35565b005b34801561052857600080fd5b506105b16004803603810190808035600019169060200190929190803573ffffffffffffffffffffffffffffffffffffffff169060200190929190803590602001908201803590602001908080601f0160208091040260200160405190810160405280939291908181526020018383808284378201915050505050509192919290505050612447565b005b3480156105bf57600080fd5b506105e2600480360381019080803560001916906020019092919050505061258f565b005b3480156105f057600080fd5b506106136004803603810190808035600019169060200190929190505050612764565b604051808973ffffffffffffffffffffffffffffffffffffffff1673ffffffffffffffffffffffffffffffffffffffff1681526020018881526020018773ffffffffffffffffffffffffffffffffffffffff1673ffffffffffffffffffffffffffffffffffffffff1681526020018060200186815260200185815260200184815260200183151515158152602001828103825287818151815260200191508051906020019080838360005b838110156106d95780820151818401526020810190506106be565b50505050905090810190601f1680156107065780820380516001836020036101000a031916815260200191505b50995050505050505050505060405180910390f35b34801561072757600080fd5b50610754600480360381019080803560001916906020019092919080359060200190929190505050612891565b005b34801561076257600080fd5b506107eb6004803603810190808035600019169060200190929190803573ffffffffffffffffffffffffffffffffffffffff169060200190929190803590602001908201803590602001908080601f0160208091040260200160405190810160405280939291908181526020018383808284378201915050505050509192919290505050612bee565b005b3480156107f957600080fd5b50610826600480360381019080803560001916906020019092919080359060200190929190505050612bff565b005b34801561083457600080fd5b506108576004803603810190808035600019169060200190929190505050612cf3565b005b34801561086557600080fd5b506108886004803603810190808035600019169060200190929190505050612fe1565b005b34801561089657600080fd5b506108c36004803603810190808035600019169060200190929190803590602001909291905050506131db565b005b3480156108d157600080fd5b5061096e6004803603810190808035600019169060200190929190803573ffffffffffffffffffffffffffffffffffffffff169060200190929190803590602001908201803590602001908080601f01602080910402602001604051908101604052809392919081815260200183838082843782019150505050505091929192908035906020019092919080359060200190929190505050613626565b005b34801561097c57600080fd5b5061099b600480360381019080803590602001909291905050506139b7565b6040518082815260200191505060405180910390f35b3480156109bd57600080fd5b506109e060048036038101908080356000191690602001909291905050506139cf565b604051808215151515815260200191505060405180910390f35b348015610a0657600080fd5b50610a33600480360381019080803560001916906020019092919080359060200190929190505050613a04565b005b610a576004803603810190808035600019169060200190929190505050613c8c565b005b348015610a6557600080fd5b50610ace6004803603810190808035600019169060200190929190803590602001908201803590602001908080601f0160208091040260200160405190810160405280939291908181526020018383808284378201915050505050509192919290505050613f6a565b005b348015610adc57600080fd5b50610aff60048036038101908080356000191690602001909291905050506142c8565b6040518082815260200191505060405180910390f35b6000602052806000526040600020600091509050806000018054600181600116156101000203166002900480601f016020809104026020016040519081016040528092919081815260200182805460018160011615610100020316600290048015610bc15780601f10610b9657610100808354040283529160200191610bc1565b820191906000526020600020905b815481529060010190602001808311610ba457829003601f168201915b5050505050905081565b60008060006001600085600019166000191681526020019081526020016000209250600460026000866000191660001916815260200190815260200160002054815481101515610c1757fe5b90600052602060002090600702019150600560009054906101000a900473ffffffffffffffffffffffffffffffffffffffff1673ffffffffffffffffffffffffffffffffffffffff1663f7434ea960066040518263ffffffff167c01000000000000000000000000000000000000000000000000000000000281526004018080602001828103825283818154600181600116156101000203166002900481526020019150805460018160011615610100020316600290048015610d1b5780601f10610cf057610100808354040283529160200191610d1b565b820191906000526020600020905b815481529060010190602001808311610cfe57829003601f168201915b505092505050602060405180830381600087803b158015610d3b57600080fd5b505af1158015610d4f573d6000803e3d6000fd5b505050506040513d6020811015610d6557600080fd5b8101908080519060200190929190505050905060036004811115610d8557fe5b8260060160009054906101000a900460ff166004811115610da257fe5b101515610e63576040517f08c379a000000000000000000000000000000000000000000000000000000000815260040180806020018281038252605a8152602001807f446973707574652068617320616c7265616479206265656e206372656174656481526020017f206f72206265636175736520746865207472616e73616374696f6e206f66207481526020017f686520676f6f6420686173206265656e2065786563757465642e00000000000081525060600191505060405180910390fd5b8360001916826000015460001916141515610f0c576040517f08c379a00000000000000000000000000000000000000000000000000000000081526004018080602001828103825260318152602001807f54686520636c61696d206f662074686520676f6f64206d757374206d6174636881526020017f656420776974682074686520676f6f642e00000000000000000000000000000081525060400191505060405180910390fd5b3373ffffffffffffffffffffffffffffffffffffffff168360000160009054906101000a900473ffffffffffffffffffffffffffffffffffffffff1673ffffffffffffffffffffffffffffffffffffffff16141515610ff9576040517f08c379a00000000000000000000000000000000000000000000000000000000081526004018080602001828103825260298152602001807f5468652063616c6c6572206d75737420626520746865206f776e6572206f662081526020017f74686520676f6f642e000000000000000000000000000000000000000000000081525060400191505060405180910390fd5b600260008560001916600019168152602001908152602001600020546000141515156110b3576040517f08c379a00000000000000000000000000000000000000000000000000000000081526004018080602001828103825260278152602001807f54686520636c61696d206f662074686520676f6f64206d75737420626520616381526020017f6365707465642e0000000000000000000000000000000000000000000000000081525060400191505060405180910390fd5b34836007016000828254019250508190555080836007015410151515611167576040517f08c379a000000000000000000000000000000000000000000000000000000000815260040180806020018281038252602b8152602001807f546865206f776e657220666565206d75737420636f766572206172626974726181526020017f74696f6e20636f7374732e00000000000000000000000000000000000000000081525060400191505060405180910390fd5b42826003018190555080826004015410156111f25760018260060160006101000a81548160ff0219169083600481111561119d57fe5b021790555083600190047fc74b9f7dedf2887cd3c113b6d8da9cea19e55c1116e25f1f0e1b72d7543179b56001604051808260018111156111da57fe5b60ff16815260200191505060405180910390a26111fd565b6111fc84826142e0565b5b50505050565b600080600160008460001916600019168152602001908152602001600020915060046002600085600019166000191681526020019081526020016000205481548110151561124d57fe5b906000526020600020906007020190506001600481111561126a57fe5b8160060160009054906101000a900460ff16600481111561128757fe5b141515611322576040517f08c379a00000000000000000000000000000000000000000000000000000000081526004018080602001828103825260378152602001807f546865207472616e73616374696f6e206f662074686520676f6f64206d75737481526020017f2077616974696e67206f6e207468652066696e6465722e00000000000000000081525060400191505060405180910390fd5b60075481600301544203101515156113a2576040517f08c379a00000000000000000000000000000000000000000000000000000000081526004018080602001828103825260208152602001807f54696d656f75742074696d6520686173206e6f7420706173736564207965742e81525060200191505060405180910390fd5b6113d360026000856000191660001916815260200190815260200160002054600160028111156113ce57fe5b614676565b505050565b600060016000846000191660001916815260200190815260200160002090503373ffffffffffffffffffffffffffffffffffffffff168160000160009054906101000a900473ffffffffffffffffffffffffffffffffffffffff1673ffffffffffffffffffffffffffffffffffffffff161415156114e4576040517f08c379a000000000000000000000000000000000000000000000000000000000815260040180806020018281038252603c8152602001807f5468652073656e646572206f6620746865207472616e73616374696f6e206d7581526020017f737420626520746865206f776e6572206f662074686520676f6f642e0000000081525060400191505060405180910390fd5b34816001015411151515611586576040517f08c379a00000000000000000000000000000000000000000000000000000000081526004018080602001828103825260368152602001807f5468652045544820616d6f756e74206d75737420626520657175616c206f722081526020017f686967686572207468616e20746865207265776172640000000000000000000081525060400191505060405180910390fd5b3481600501600082825401925050819055508160026000856000191660001916815260200190815260200160002081905550505050565b606060006060600080600160008c60001916600019168152602001908152602001600020935060018460040180549050111561165757606060405190810160405280603081526020017f4f6e6c792066756e64696e67206f6e65206d6574617472616e73616374696f6e81526020017f20666f72206561636820676f6f6469650000000000000000000000000000000081525094506119c7565b6040805190810160405280601c81526020017f19457468657265756d205369676e6564204d6573736167653a0a33320000000081525092508a8a8a6040516020018084600019166000191681526020018373ffffffffffffffffffffffffffffffffffffffff1673ffffffffffffffffffffffffffffffffffffffff16815260200180602001828103825283818151815260200191508051906020019080838360005b838110156117155780820151818401526020810190506116fa565b50505050905090810190601f1680156117425780820380516001836020036101000a031916815260200191505b509450505050506040516020818303038152906040526040518082805190602001908083835b60208310151561178d5780518252602082019150602081019050602083039250611768565b6001836020036101000a0380198251168184511680821785525050505050509050019150506040518091039020915082826040516020018083805190602001908083835b6020831015156117f657805182526020820191506020810190506020830392506117d1565b6001836020036101000a0380198251168184511680821785525050505050509050018260001916600019168152602001925050506040516020818303038152906040526040518082805190602001908083835b60208310151561186e5780518252602082019150602081019050602083039250611849565b6001836020036101000a038019825116818451168082178552505050505050905001915050604051809103902090508360020160009054906101000a900473ffffffffffffffffffffffffffffffffffffffff1673ffffffffffffffffffffffffffffffffffffffff166001828a8a8a604051600081526020016040526040518085600019166000191681526020018460ff1660ff1681526020018360001916600019168152602001826000191660001916815260200194505050505060206040516020810390808403906000865af115801561194f573d6000803e3d6000fd5b5050506020604051035173ffffffffffffffffffffffffffffffffffffffff161415156119b3576040805190810160405280601181526020017f496e76616c6964207369676e617475726500000000000000000000000000000081525094506119c7565b602060405190810160405280600081525094505b505050509695505050505050565b6000600560009054906101000a900473ffffffffffffffffffffffffffffffffffffffff1673ffffffffffffffffffffffffffffffffffffffff163373ffffffffffffffffffffffffffffffffffffffff16141515611ac2576040517f08c379a00000000000000000000000000000000000000000000000000000000081526004018080602001828103825260358152602001807f5468652073656e646572206f6620746865207472616e73616374696f6e206d7581526020017f7374206265207468652061726269747261746f722e000000000000000000000081525060400191505060405180910390fd5b60046003600085815260200190815260200160002054815481101515611ae457fe5b906000526020600020906007020190508060060160009054906101000a900460ff166004811115611b1157fe5b60036004811115611b1e57fe5b141515611bb9576040517f08c379a00000000000000000000000000000000000000000000000000000000081526004018080602001828103825260268152602001807f54686520646973707574652068617320616c7265616479206265656e2072657381526020017f6f6c7665642e000000000000000000000000000000000000000000000000000081525060400191505060405180910390fd5b823373ffffffffffffffffffffffffffffffffffffffff167f394027a5fa6e098a1191094d1719d6929b9abc535fcc0c8f448d6a4e75622276846040518082815260200191505060405180910390a3611c25600360008581526020019081526020016000205483614676565b505050565b600060016000846000191660001916815260200190815260200160002090508060000160009054906101000a900473ffffffffffffffffffffffffffffffffffffffff1673ffffffffffffffffffffffffffffffffffffffff163373ffffffffffffffffffffffffffffffffffffffff16141515611d10576040517f08c379a000000000000000000000000000000000000000000000000000000000815260040180806020018281038252601e8152602001807f4d75737420626520746865206f776e6572206f662074686520676f6f642e000081525060200191505060405180910390fd5b818160010181905550505050565b600060606001600089600019166000191681526020019081526020016000209150611d4d8888888888886115bd565b9050600081511115611dfb57806040517f08c379a00000000000000000000000000000000000000000000000000000000081526004018080602001828103825283818151815260200191508051906020019080838360005b83811015611dc0578082015181840152602081019050611da5565b50505050905090810190601f168015611ded5780820380516001836020036101000a031916815260200191505b509250505060405180910390fd5b611e2b8260020160009054906101000a900473ffffffffffffffffffffffffffffffffffffffff1689898961498f565b5050505050505050565b60008060006001600085600019166000191681526020019081526020016000209250600460026000866000191660001916815260200190815260200160002054815481101515611e8157fe5b90600052602060002090600702019150600560009054906101000a900473ffffffffffffffffffffffffffffffffffffffff1673ffffffffffffffffffffffffffffffffffffffff1663f7434ea960066040518263ffffffff167c01000000000000000000000000000000000000000000000000000000000281526004018080602001828103825283818154600181600116156101000203166002900481526020019150805460018160011615610100020316600290048015611f855780601f10611f5a57610100808354040283529160200191611f85565b820191906000526020600020905b815481529060010190602001808311611f6857829003601f168201915b505092505050602060405180830381600087803b158015611fa557600080fd5b505af1158015611fb9573d6000803e3d6000fd5b505050506040513d6020811015611fcf57600080fd5b8101908080519060200190929190505050905060036004811115611fef57fe5b8260060160009054906101000a900460ff16600481111561200c57fe5b1015156120cd576040517f08c379a000000000000000000000000000000000000000000000000000000000815260040180806020018281038252604e8152602001807f446973707574652068617320616c7265616479206265656e206372656174656481526020017f206f72206265636175736520746865207472616e73616374696f6e206861732081526020017f6265656e2065786563757465642e00000000000000000000000000000000000081525060600191505060405180910390fd5b8360001916826000015460001916141515612176576040517f08c379a00000000000000000000000000000000000000000000000000000000081526004018080602001828103825260318152602001807f54686520636c61696d206f662074686520676f6f64206d757374206d6174636881526020017f656420776974682074686520676f6f642e00000000000000000000000000000081525060400191505060405180910390fd5b3373ffffffffffffffffffffffffffffffffffffffff168260010160009054906101000a900473ffffffffffffffffffffffffffffffffffffffff1673ffffffffffffffffffffffffffffffffffffffff1614151561223d576040517f08c379a000000000000000000000000000000000000000000000000000000000815260040180806020018281038252601e8152602001807f5468652063616c6c6572206d757374206265207468652073656e6465722e000081525060200191505060405180910390fd5b600260008560001916600019168152602001908152602001600020546000141515156122f7576040517f08c379a00000000000000000000000000000000000000000000000000000000081526004018080602001828103825260278152602001807f54686520636c61696d206f662074686520676f6f64206d75737420626520616381526020017f6365707465642e0000000000000000000000000000000000000000000000000081525060400191505060405180910390fd5b348260040160008282540192505081905550808260040154101515156123ab576040517f08c379a000000000000000000000000000000000000000000000000000000000815260040180806020018281038252602c8152602001807f5468652066696e64657220666565206d75737420636f7665722061726269747281526020017f6174696f6e20636f7374732e000000000000000000000000000000000000000081525060400191505060405180910390fd5b42826003018190555080836007015410156124365760028260060160006101000a81548160ff021916908360048111156123e157fe5b021790555083600190047fc74b9f7dedf2887cd3c113b6d8da9cea19e55c1116e25f1f0e1b72d7543179b560006040518082600181111561241e57fe5b60ff16815260200191505060405180910390a2612441565b61244084826142e0565b5b50505050565b600060016000856000191660001916815260200190815260200160002090508060000160009054906101000a900473ffffffffffffffffffffffffffffffffffffffff1673ffffffffffffffffffffffffffffffffffffffff163373ffffffffffffffffffffffffffffffffffffffff1614151561252d576040517f08c379a000000000000000000000000000000000000000000000000000000000815260040180806020018281038252601e8152602001807f4d75737420626520746865206f776e6572206f662074686520676f6f642e000081525060200191505060405180910390fd5b828160020160006101000a81548173ffffffffffffffffffffffffffffffffffffffff021916908373ffffffffffffffffffffffffffffffffffffffff16021790555081816003019080519060200190612588929190614ca4565b5050505050565b600060016000836000191660001916815260200190815260200160002090508060000160009054906101000a900473ffffffffffffffffffffffffffffffffffffffff1673ffffffffffffffffffffffffffffffffffffffff163373ffffffffffffffffffffffffffffffffffffffff16141515612675576040517f08c379a000000000000000000000000000000000000000000000000000000000815260040180806020018281038252601e8152602001807f4d75737420626520746865206f776e6572206f662074686520676f6f642e000081525060200191505060405180910390fd5b80600501546000141515612717576040517f08c379a00000000000000000000000000000000000000000000000000000000081526004018080602001828103825260248152602001807f4d7573742068617665206e6f20616363657074656420636c61696d206f6e676f81526020017f696e672e0000000000000000000000000000000000000000000000000000000081525060400191505060405180910390fd5b60006040519080825280602002602001820160405280156127475781602001602082028038833980820191505090505b5081600401908051906020019061275f929190614d24565b505050565b60016020528060005260406000206000915090508060000160009054906101000a900473ffffffffffffffffffffffffffffffffffffffff16908060010154908060020160009054906101000a900473ffffffffffffffffffffffffffffffffffffffff1690806003018054600181600116156101000203166002900480601f0160208091040260200160405190810160405280929190818152602001828054600181600116156101000203166002900480156128625780601f1061283757610100808354040283529160200191612862565b820191906000526020600020905b81548152906001019060200180831161284557829003601f168201915b5050505050908060050154908060060154908060070154908060080160009054906101000a900460ff16905088565b600080600060016000866000191660001916815260200190815260200160002092506004600260008760001916600019168152602001908152602001600020548154811015156128dd57fe5b906000526020600020906007020191503373ffffffffffffffffffffffffffffffffffffffff168260010160009054906101000a900473ffffffffffffffffffffffffffffffffffffffff1673ffffffffffffffffffffffffffffffffffffffff161415156129da576040517f08c379a000000000000000000000000000000000000000000000000000000000815260040180806020018281038252602a8152602001807f5468652063616c6c6572206d757374206265207468652066696e646572206f6681526020017f2074686520676f6f642e0000000000000000000000000000000000000000000081525060400191505060405180910390fd5b600060048111156129e757fe5b8260060160009054906101000a900460ff166004811115612a0457fe5b141515612a9f576040517f08c379a00000000000000000000000000000000000000000000000000000000081526004018080602001828103825260278152602001807f546865207472616e73616374696f6e20676f6f642063616e277420626520646981526020017f7370757465642e0000000000000000000000000000000000000000000000000081525060400191505060405180910390fd5b82600501548411151515612b67576040517f08c379a00000000000000000000000000000000000000000000000000000000081526004018080602001828103825260428152602001807f54686520616d6f756e7420706169642068617320746f206265206c657373207481526020017f68616e206f7220657175616c20746f2074686520616d6f756e74206c6f636b6581526020017f642e00000000000000000000000000000000000000000000000000000000000081525060600191505060405180910390fd5b8260000160009054906101000a900473ffffffffffffffffffffffffffffffffffffffff1690508073ffffffffffffffffffffffffffffffffffffffff166108fc859081150290604051600060405180830381858888f19350505050158015612bd4573d6000803e3d6000fd5b508383600501600082825403925050819055505050505050565b612bfa3384848461498f565b505050565b600060016000846000191660001916815260200190815260200160002090508060000160009054906101000a900473ffffffffffffffffffffffffffffffffffffffff1673ffffffffffffffffffffffffffffffffffffffff163373ffffffffffffffffffffffffffffffffffffffff16141515612ce5576040517f08c379a000000000000000000000000000000000000000000000000000000000815260040180806020018281038252601e8152602001807f4d75737420626520746865206f776e6572206f662074686520676f6f642e000081525060200191505060405180910390fd5b818160060181905550505050565b6000806001600084600019166000191681526020019081526020016000209150600460026000856000191660001916815260200190815260200160002054815481101515612d3d57fe5b906000526020600020906007020190508260001916816000015460001916141515612df6576040517f08c379a00000000000000000000000000000000000000000000000000000000081526004018080602001828103825260318152602001807f54686520636c61696d206f662074686520676f6f64206d757374206d6174636881526020017f656420776974682074686520676f6f642e00000000000000000000000000000081525060400191505060405180910390fd5b81600601548160030154420310151515612e78576040517f08c379a000000000000000000000000000000000000000000000000000000000815260040180806020018281038252601f8152602001807f5468652074696d656f757420686173206e6f7420706173736564207965742e0081525060200191505060405180910390fd5b60006004811115612e8557fe5b8160060160009054906101000a900460ff166004811115612ea257fe5b141515612f3d576040517f08c379a00000000000000000000000000000000000000000000000000000000081526004018080602001828103825260348152602001807f546865207472616e73616374696f6e206f662074686520636c61696d20676f6f81526020017f642063616e27742062652064697370757465642e00000000000000000000000081525060400191505060405180910390fd5b8060010160009054906101000a900473ffffffffffffffffffffffffffffffffffffffff1673ffffffffffffffffffffffffffffffffffffffff166108fc83600501549081150290604051600060405180830381858888f19350505050158015612fab573d6000803e3d6000fd5b506000826005018190555060048160060160006101000a81548160ff02191690836004811115612fd757fe5b0217905550505050565b600080600160008460001916600019168152602001908152602001600020915060046002600085600019166000191681526020019081526020016000205481548110151561302b57fe5b906000526020600020906007020190506002600481111561304857fe5b8160060160009054906101000a900460ff16600481111561306557fe5b141515613126576040517f08c379a00000000000000000000000000000000000000000000000000000000081526004018080602001828103825260428152602001807f546865207472616e73616374696f6e206f662074686520676f6f64206d75737481526020017f2077616974696e67206f6e20746865206f776e6572206f662074686520676f6f81526020017f642e00000000000000000000000000000000000000000000000000000000000081525060600191505060405180910390fd5b60075481600301544203101515156131a6576040517f08c379a00000000000000000000000000000000000000000000000000000000081526004018080602001828103825260208152602001807f54696d656f75742074696d6520686173206e6f7420706173736564207965742e81525060200191505060405180910390fd5b6131d6600260008560001916600019168152602001908152602001600020546002808111156131d157fe5b614676565b505050565b6000806000600160008660001916600019168152602001908152602001600020925060046002600087600019166000191681526020019081526020016000205481548110151561322757fe5b906000526020600020906007020191503373ffffffffffffffffffffffffffffffffffffffff168360000160009054906101000a900473ffffffffffffffffffffffffffffffffffffffff1673ffffffffffffffffffffffffffffffffffffffff16141515613324576040517f08c379a00000000000000000000000000000000000000000000000000000000081526004018080602001828103825260298152602001807f5468652063616c6c6572206d75737420626520746865206f776e6572206f662081526020017f74686520676f6f642e000000000000000000000000000000000000000000000081525060400191505060405180910390fd5b6000600481111561333157fe5b8260060160009054906101000a900460ff16600481111561334e57fe5b1415156133e9576040517f08c379a000000000000000000000000000000000000000000000000000000000815260040180806020018281038252602e8152602001807f546865207472616e73616374696f6e206f662074686520676f6f642063616e2781526020017f742062652064697370757465642e00000000000000000000000000000000000081525060400191505060405180910390fd5b826005015484111515156134b1576040517f08c379a00000000000000000000000000000000000000000000000000000000081526004018080602001828103825260428152602001807f54686520616d6f756e7420706169642068617320746f206265206c657373207481526020017f68616e206f7220657175616c20746f2074686520616d6f756e74206c6f636b6581526020017f642e00000000000000000000000000000000000000000000000000000000000081525060600191505060405180910390fd5b8160010160009054906101000a900473ffffffffffffffffffffffffffffffffffffffff1690508073ffffffffffffffffffffffffffffffffffffffff166108fc859081150290604051600060405180830381858888f1935050505015801561351e573d6000803e3d6000fd5b5083836005016000828254039250508190555060008360050154141561361f57826004016002600087600019166000191681526020019081526020016000205481548110151561356a57fe5b90600052602060002001600090556004600260008760001916600019168152602001908152602001600020548154811015156135a257fe5b90600052602060002090600702016000808201600090556001820160006101000a81549073ffffffffffffffffffffffffffffffffffffffff02191690556002820160006135f09190614d71565b6003820160009055600482016000905560058201600090556006820160006101000a81549060ff021916905550505b5050505050565b6000151560016000876000191660001916815260200190815260200160002060080160009054906101000a900460ff1615151415156136cd576040517f08c379a000000000000000000000000000000000000000000000000000000000815260040180806020018281038252601e8152602001807f546865206964206d757374206265206e6f7420726567697374657265642e000081525060200191505060405180910390fd5b610120604051908101604052803373ffffffffffffffffffffffffffffffffffffffff1681526020018381526020018573ffffffffffffffffffffffffffffffffffffffff168152602001848152602001600060405190808252806020026020018201604052801561374e5781602001602082028038833980820191505090505b50815260200160008152602001828152602001600081526020016001151581525060016000876000191660001916815260200190815260200160002060008201518160000160006101000a81548173ffffffffffffffffffffffffffffffffffffffff021916908373ffffffffffffffffffffffffffffffffffffffff1602179055506020820151816001015560408201518160020160006101000a81548173ffffffffffffffffffffffffffffffffffffffff021916908373ffffffffffffffffffffffffffffffffffffffff160217905550606082015181600301908051906020019061383e929190614db9565b50608082015181600401908051906020019061385b929190614e39565b5060a0820151816005015560c0820151816006015560e082015181600701556101008201518160080160006101000a81548160ff0219169083151502179055509050506000803373ffffffffffffffffffffffffffffffffffffffff1673ffffffffffffffffffffffffffffffffffffffff16815260200190815260200160002060010185908060018154018082558091505090600182039060005260206000200160009091929091909150906000191690555084600190047f61606860eb6c87306811e2695215385101daab53bd6ab4e9f9049aead9363c7d846040518080602001828103825283818151815260200191508051906020019080838360005b8381101561397657808201518184015260208101905061395b565b50505050905090810190601f1680156139a35780820380516001836020036101000a031916815260200191505b509250505060405180910390a25050505050565b60036020528060005260406000206000915090505481565b600060016000836000191660001916815260200190815260200160002060080160009054906101000a900460ff169050919050565b600060016000846000191660001916815260200190815260200160002090503373ffffffffffffffffffffffffffffffffffffffff168160000160009054906101000a900473ffffffffffffffffffffffffffffffffffffffff1673ffffffffffffffffffffffffffffffffffffffff16141515613b10576040517f08c379a000000000000000000000000000000000000000000000000000000000815260040180806020018281038252603c8152602001807f5468652073656e646572206f6620746865207472616e73616374696f6e206d7581526020017f737420626520746865206f776e6572206f662074686520676f6f642e0000000081525060400191505060405180910390fd5b8260001916600483815481101515613b2457fe5b90600052602060002090600702016000015460001916141515613bd5576040517f08c379a00000000000000000000000000000000000000000000000000000000081526004018080602001828103825260318152602001807f54686520636c61696d206f662074686520676f6f64206d757374206d6174636881526020017f656420776974682074686520676f6f642e00000000000000000000000000000081525060400191505060405180910390fd5b600260008460001916600019168152602001908152602001600020546000141515613c68576040517f08c379a000000000000000000000000000000000000000000000000000000000815260040180806020018281038252601e8152602001807f54686520636c61696d206d757374206e6f74206265206163636570746564000081525060200191505060405180910390fd5b8060040182815481101515613c7957fe5b9060005260206000200160009055505050565b6000600460026000846000191660001916815260200190815260200160002054815481101515613cb857fe5b906000526020600020906007020190506001600082600001546000191660001916815260200190815260200160002060000160009054906101000a900473ffffffffffffffffffffffffffffffffffffffff1673ffffffffffffffffffffffffffffffffffffffff163373ffffffffffffffffffffffffffffffffffffffff161480613d9357508060010160009054906101000a900473ffffffffffffffffffffffffffffffffffffffff1673ffffffffffffffffffffffffffffffffffffffff163373ffffffffffffffffffffffffffffffffffffffff16145b1515613e2d576040517f08c379a00000000000000000000000000000000000000000000000000000000081526004018080602001828103825260378152602001807f5468652063616c6c6572206d75737420626520746865206f776e6572206f662081526020017f74686520676f6f64206f72207468652066696e6465722e00000000000000000081525060400191505060405180910390fd5b600560009054906101000a900473ffffffffffffffffffffffffffffffffffffffff1673ffffffffffffffffffffffffffffffffffffffff166349912f8834836005015460066040518463ffffffff167c01000000000000000000000000000000000000000000000000000000000281526004018083815260200180602001828103825283818154600181600116156101000203166002900481526020019150805460018160011615610100020316600290048015613f2d5780601f10613f0257610100808354040283529160200191613f2d565b820191906000526020600020905b815481529060010190602001808311613f1057829003601f168201915b505093505050506000604051808303818588803b158015613f4d57600080fd5b505af1158015613f61573d6000803e3d6000fd5b50505050505050565b6000806001600085600019166000191681526020019081526020016000209150600460026000866000191660001916815260200190815260200160002054815481101515613fb457fe5b906000526020600020906007020190508160000160009054906101000a900473ffffffffffffffffffffffffffffffffffffffff1673ffffffffffffffffffffffffffffffffffffffff163373ffffffffffffffffffffffffffffffffffffffff16148061407157508060010160009054906101000a900473ffffffffffffffffffffffffffffffffffffffff1673ffffffffffffffffffffffffffffffffffffffff163373ffffffffffffffffffffffffffffffffffffffff16145b151561410b576040517f08c379a00000000000000000000000000000000000000000000000000000000081526004018080602001828103825260378152602001807f5468652063616c6c6572206d75737420626520746865206f776e6572206f662081526020017f74686520676f6f64206f72207468652066696e6465722e00000000000000000081525060400191505060405180910390fd5b6003600481111561411857fe5b8160060160009054906101000a900460ff16600481111561413557fe5b101515156141d1576040517f08c379a00000000000000000000000000000000000000000000000000000000081526004018080602001828103825260258152602001807f546865206469737075746520686173206e6f74206265656e206372656174656481526020017f207965742e00000000000000000000000000000000000000000000000000000081525060400191505060405180910390fd5b3373ffffffffffffffffffffffffffffffffffffffff168460019004600560009054906101000a900473ffffffffffffffffffffffffffffffffffffffff1673ffffffffffffffffffffffffffffffffffffffff167fdccf2f8b2cc26eafcd61905cba744cff4b81d14740725f6376390dc6298a6a3c866040518080602001828103825283818151815260200191508051906020019080838360005b8381101561428857808201518184015260208101905061426d565b50505050905090810190601f1680156142b55780820380516001836020036101000a031916815260200191505b509250505060405180910390a450505050565b60026020528060005260406000206000915090505481565b6000806000806000600160008860001916600019168152602001908152602001600020945060046002600089600019166000191681526020019081526020016000205481548110151561432f57fe5b9060005260206000209060070201935060038460060160006101000a81548160ff0219169083600481111561436057fe5b0217905550600560009054906101000a900473ffffffffffffffffffffffffffffffffffffffff1673ffffffffffffffffffffffffffffffffffffffff1663c13517e187600260066040518463ffffffff167c0100000000000000000000000000000000000000000000000000000000028152600401808360ff168152602001806020018281038252838181546001816001161561010002031660029004815260200191508054600181600116156101000203166002900480156144655780601f1061443a57610100808354040283529160200191614465565b820191906000526020600020905b81548152906001019060200180831161444857829003601f168201915b505093505050506020604051808303818588803b15801561448557600080fd5b505af1158015614499573d6000803e3d6000fd5b50505050506040513d60208110156144b057600080fd5b810190808051906020019092919050505092506002600088600019166000191681526020019081526020016000205460036000858152602001908152602001600020819055508360050154600560009054906101000a900473ffffffffffffffffffffffffffffffffffffffff1673ffffffffffffffffffffffffffffffffffffffff167f74baab670a4015ab2f1b467c5252a96141a2573f2908e58a92081e80d3cfde3d89600190048a60019004604051808381526020018281526020019250505060405180910390a385846004015411156145f4578584600401540391508584600401819055508360010160009054906101000a900473ffffffffffffffffffffffffffffffffffffffff1673ffffffffffffffffffffffffffffffffffffffff166108fc839081150290604051600060405180830381858888f19350505050505b858560070154111561466d578585600701540390508585600701819055508460000160009054906101000a900473ffffffffffffffffffffffffffffffffffffffff1673ffffffffffffffffffffffffffffffffffffffff166108fc829081150290604051600060405180830381858888f19350505050505b50505050505050565b6000806000600260ff1684111515156146f7576040517f08c379a000000000000000000000000000000000000000000000000000000000815260040180806020018281038252600f8152602001807f496e76616c69642072756c696e672e000000000000000000000000000000000081525060200191505060405180910390fd5b6004600360008781526020019081526020016000205481548110151561471957fe5b906000526020600020906007020192506001600084600001546000191660001916815260200190815260200160002091506001600281111561475757fe5b8414156147c7578160000160009054906101000a900473ffffffffffffffffffffffffffffffffffffffff1673ffffffffffffffffffffffffffffffffffffffff166108fc83600501548460070154019081150290604051600060405180830381858888f1935050505050614912565b6002808111156147d357fe5b841415614843578260010160009054906101000a900473ffffffffffffffffffffffffffffffffffffffff1673ffffffffffffffffffffffffffffffffffffffff166108fc83600501548560040154019081150290604051600060405180830381858888f1935050505050614911565b6002826005015483600701540181151561485957fe5b0490508160000160009054906101000a900473ffffffffffffffffffffffffffffffffffffffff1673ffffffffffffffffffffffffffffffffffffffff166108fc829081150290604051600060405180830381858888f19350505050508260010160009054906101000a900473ffffffffffffffffffffffffffffffffffffffff1673ffffffffffffffffffffffffffffffffffffffff166108fc829081150290604051600060405180830381858888f19350505050505b5b81600401600360008781526020019081526020016000205481548110151561493657fe5b906000526020600020016000905560008260050181905550600082600701819055506000836004018190555060048360060160006101000a81548160ff0219169083600481111561498357fe5b02179055505050505050565b60008060016000866000191660001916815260200190815260200160002091508160020160009054906101000a900473ffffffffffffffffffffffffffffffffffffffff1673ffffffffffffffffffffffffffffffffffffffff168673ffffffffffffffffffffffffffffffffffffffff16141515614ac2576040517f08c379a00000000000000000000000000000000000000000000000000000000081526004018080602001828103825260588152602001807f4d757374206265207468652073616d652073656e646572206f6620746865207481526020017f72616e73616374696f6e207468616e207468652061646472657373207573656481526020017f20746f20656e637279707420746865206d6573736167652e000000000000000081525060600191505060405180910390fd5b600460e060405190810160405280876000191681526020018673ffffffffffffffffffffffffffffffffffffffff168152602001858152602001428152602001600081526020016000815260200160006004811115614b1d57fe5b815250908060018154018082558091505090600182039060005260206000209060070201600090919290919091506000820151816000019060001916905560208201518160010160006101000a81548173ffffffffffffffffffffffffffffffffffffffff021916908373ffffffffffffffffffffffffffffffffffffffff1602179055506040820151816002019080519060200190614bbe929190614db9565b50606082015181600301556080820151816004015560a0820151816005015560c08201518160060160006101000a81548160ff02191690836004811115614c0157fe5b021790555050505060016004805490500190508082600401836004018054809190600101614c2f9190614e86565b815481101515614c3b57fe5b90600052602060002001819055508373ffffffffffffffffffffffffffffffffffffffff1685600019167f5e359f39c2a22d98ee90bd9c26c757c2518f85993f63c82d9b93966b18e91d39836040518082815260200191505060405180910390a3505050505050565b828054600181600116156101000203166002900490600052602060002090601f016020900481019282601f10614ce557805160ff1916838001178555614d13565b82800160010185558215614d13579182015b82811115614d12578251825591602001919060010190614cf7565b5b509050614d209190614eb2565b5090565b828054828255906000526020600020908101928215614d60579160200282015b82811115614d5f578251825591602001919060010190614d44565b5b509050614d6d9190614eb2565b5090565b50805460018160011615610100020316600290046000825580601f10614d975750614db6565b601f016020900490600052602060002090810190614db59190614eb2565b5b50565b828054600181600116156101000203166002900490600052602060002090601f016020900481019282601f10614dfa57805160ff1916838001178555614e28565b82800160010185558215614e28579182015b82811115614e27578251825591602001919060010190614e0c565b5b509050614e359190614eb2565b5090565b828054828255906000526020600020908101928215614e75579160200282015b82811115614e74578251825591602001919060010190614e59565b5b509050614e829190614eb2565b5090565b815481835581811115614ead57818360005260206000209182019101614eac9190614eb2565b5b505050565b614ed491905b80821115614ed0576000816000905550600101614eb8565b5090565b905600a165627a7a723058207bfd3efc67d08314f16323e4ca63e255c564b302a98bc3ed4b2d6ec356fcdad90029",
  "source": "pragma solidity ^0.4.25;\n\nimport {IArbitrable, Arbitrator} from \"@kleros/kleros-interaction/contracts/standard/arbitration/Arbitrator.sol\";\n\ncontract Recover is IArbitrable {\n\n    // **************************** //\n    // *    Contract variables    * //\n    // **************************** //\n\n    // Amount of choices to solve the dispute if needed.\n    uint8 constant AMOUNT_OF_CHOICES = 2;\n\n    // Enum relative to different periods in the case of a negotiation or dispute.\n    enum Status {NoDispute, WaitingFinder, WaitingOwner, DisputeCreated, Resolved}\n    // The different parties of the dispute.\n    enum Party {Owner, Finder}\n    // The different ruling for the dispute resolution.\n    enum RulingOptions {NoRuling, OwnerWins, FinderWins}\n\n    struct Good {\n        address owner; // Owner of the good.\n        uint rewardAmount; // Amount of the reward in ETH.\n        address addressForEncryption; // Address used to encrypt the link of description and to make a claim.\n        string descriptionEncryptedLink; // Description encrypted link to chat/find the owner of the good (ex: IPFS URL with the encrypted description).\n        uint[] claimIDs; // Collection of the claim to give back the good and get the reward.\n        uint amountLocked; // Amount locked while a claim is accepted.\n        uint timeoutLocked; // Timeout after which the finder can call the function `executePayment`.\n        uint ownerFee; // Total fees paid by the owner of the good.\n        bool exists; // Boolean to check if the good exists or not in the collection.\n    }\n\n    struct Owner {\n        string description; // (optionnal) Public description of the owner (ENS, Twitter, Telegram...)\n        bytes32[] goodIDs; // Owner collection of the goods.\n    }\n\n    struct Claim {\n        bytes32 goodID; // Relation one-to-one with the good.\n        address finder; // Address of the good finder.\n        string descriptionLink; // Public link description to proof we found the good (ex: IPFS URL with the content).\n        uint lastInteraction; // Last interaction for the dispute procedure.\n        uint finderFee; // Total fees paid by the finder.\n        uint disputeID; // If dispute exists, the ID of the claim.\n        Status status; // Status of the claim relative to a dispute.\n    }\n\n    mapping(address => Owner) public owners; // Collection of the owners.\n\n    mapping(bytes32 => Good) public goods; // Collection of the goods.\n\n    mapping(bytes32 => uint) public goodIDtoClaimAcceptedID; // One-to-one relationship between the good and the claim accepted.\n    mapping(uint => uint) public disputeIDtoClaimAcceptedID; // One-to-one relationship between the dispute and the claim accepted.\n\n    Claim[] claims; // Collection of the claims.\n    Arbitrator arbitrator; // Address of the arbitrator contract.\n    bytes arbitratorExtraData; // Extra data to set up the arbitration.\n    uint feeTimeout; // Time in seconds a party can take to pay arbitration fees before being considered unresponding and lose the dispute.\n\n    // **************************** //\n    // *          Events          * //\n    // **************************** //\n\n    /** @dev Indicate that a party has to pay a fee or would otherwise be considered as losing.\n     *  @param _transactionID The index of the transaction.\n     *  @param _party The party who has to pay.\n     */\n    event HasToPayFee(uint indexed _transactionID, Party _party);\n\n    event GoodClaimed(bytes32 indexed goodID, address indexed finder, uint claimID);\n\n    // **************************** //\n    // *    Contract functions    * //\n    // *    Modifying the state   * //\n    // **************************** //\n\n    /** @dev Constructor.\n     *  @param _arbitrator The arbitrator of the contract.\n     *  @param _arbitratorExtraData Extra data for the arbitrator.\n     *  @param _feeTimeout Arbitration fee timeout for the parties.\n     */\n    constructor (\n        Arbitrator _arbitrator,\n        bytes memory _arbitratorExtraData,\n        uint _feeTimeout\n    ) public {\n        arbitrator = Arbitrator(_arbitrator);\n        arbitratorExtraData = _arbitratorExtraData;\n        feeTimeout = _feeTimeout;\n        claims.length++; // To avoid to have a claim with 0 as index.\n    }\n\n    /** @dev Add good.\n     *  @param _goodID The index of the good.\n     *  @param _addressForEncryption Link to the meta-evidence.\n     *  @param _descriptionEncryptedLink Time after which a party can automatically execute the arbitrable transaction.\n     *  @param _rewardAmount The recipient of the transaction.\n     *  @param _timeoutLocked Timeout after which the finder can call the function `executePayment`.\n     */\n    function addGood(\n        bytes32 _goodID,\n        address _addressForEncryption,\n        string memory _descriptionEncryptedLink,\n        uint _rewardAmount,\n        uint _timeoutLocked\n    ) public {\n        require(goods[_goodID].exists == false, \"The id must be not registered.\");\n\n        // Add the good in the collection.\n        goods[_goodID] = Good({\n            owner: msg.sender, // The owner of the good.\n            rewardAmount: _rewardAmount, // The reward to find the good.\n            addressForEncryption: _addressForEncryption, // Address used to encrypt the link descritpion.\n            descriptionEncryptedLink: _descriptionEncryptedLink, // Description encrypted link to chat/find the owner of the good.\n            claimIDs: new uint[](0), // Empty array. There is no claims at this moment.\n            amountLocked: 0, // Amount locked is 0. This variable is setting when there an accepting claim.\n            timeoutLocked: _timeoutLocked, // If the a claim is accepted, time while the amount is locked.\n            ownerFee: 0,\n            exists: true // The good exists now.\n        });\n\n        // Add the good in the owner good collection.\n        owners[msg.sender].goodIDs.push(_goodID);\n\n        // Store the encrypted link in the meta-evidence.\n        emit MetaEvidence(uint(_goodID), _descriptionEncryptedLink);\n    }\n\n    /** @dev Change the address used to encrypt the description link and the description.\n     *  @param _goodID The index of the good.\n     *  @param _addressForEncryption Time after which a party can automatically execute the arbitrable transaction.\n     *  @param _descriptionEncryptedLink The recipient of the transaction.\n     */\n    function changeAddressAndDescriptionEncrypted(\n        bytes32 _goodID,\n        address _addressForEncryption,\n        string memory _descriptionEncryptedLink\n    ) public {\n        Good storage good = goods[_goodID];\n\n        require(msg.sender == good.owner, \"Must be the owner of the good.\");\n\n        good.addressForEncryption = _addressForEncryption;\n        good.descriptionEncryptedLink = _descriptionEncryptedLink;\n    }\n\n    /** @dev Change the reward amount of the good.\n     *  @param _goodID The index of the good.\n     *  @param _rewardAmount The amount of the reward for the good.\n     */\n    function changeRewardAmount(bytes32 _goodID, uint _rewardAmount) public {\n        Good storage good = goods[_goodID];\n\n        require(msg.sender == good.owner, \"Must be the owner of the good.\");\n\n        good.rewardAmount = _rewardAmount;\n    }\n\n    /** @dev Change the reward amount of the good.\n     *  @param _goodID The index of the good.\n     *  @param _timeoutLocked Timeout after which the finder can call the function `executePayment`.\n     */\n    function changeTimeoutLocked(bytes32 _goodID, uint _timeoutLocked) public {\n        Good storage good = goods[_goodID];\n\n        require(msg.sender == good.owner, \"Must be the owner of the good.\");\n\n        good.timeoutLocked = _timeoutLocked;\n    }\n\n    /** @dev Reset claims for a good.\n     *  @param _goodID The ID of the good.\n     */\n    function resetClaims(bytes32 _goodID) public {\n        Good storage good = goods[_goodID];\n\n        require(msg.sender == good.owner, \"Must be the owner of the good.\");\n        require(0 == good.amountLocked, \"Must have no accepted claim ongoing.\");\n\n        good.claimIDs = new uint[](0);\n    }\n\n    /** @dev Claim a good.\n     *  @param _goodID The index of the good.\n     *  @param _finder The address of the finder.\n     *  @param _descriptionLink The link to the description of the good (optionnal).\n     */\n    function claim(\n        bytes32 _goodID,\n        address _finder,\n        string memory _descriptionLink\n    ) public {\n        _claim(msg.sender, _goodID, _finder, _descriptionLink);\n    }\n\n    function _claim(\n        address claimerAddress,\n        bytes32 _goodID,\n        address _finder,\n        string memory _descriptionLink\n    ) private {\n        Good storage good = goods[_goodID];\n\n        require(\n            claimerAddress == good.addressForEncryption,\n            \"Must be the same sender of the transaction than the address used to encrypt the message.\"\n        );\n\n        claims.push(Claim({\n            goodID: _goodID,\n            finder: _finder,\n            descriptionLink: _descriptionLink,\n            lastInteraction: now,\n            finderFee: 0,\n            disputeID: 0,\n            status: Status.NoDispute\n        }));\n\n        uint claimID = claims.length + 1; // claimID shall start from 1\n        good.claimIDs[good.claimIDs.length++] = claimID; // Adds the claim in the collection of the claim ids for this good.\n\n        emit GoodClaimed(_goodID, _finder, claimID);\n    }\n\n    function validateClaimMetaTransaction(\n        bytes32 _goodID,\n        address _finder,\n        string memory _descriptionLink,\n        uint8 v, bytes32 r, bytes32 s) public view returns (string memory errorReason) {\n        Good storage good = goods[_goodID];\n        if (good.claimIDs.length > 1) {\n            return \"Only funding one metatransaction for each goodie\";\n        }\n        bytes memory prefix = \"\\x19Ethereum Signed Message:\\n32\";\n        bytes32 msgHash = keccak256(abi.encode(_goodID, _finder, _descriptionLink));\n        bytes32 prefixedHash = keccak256(abi.encodePacked(prefix, msgHash));\n        if (ecrecover(prefixedHash, v, r, s) != good.addressForEncryption) {\n            return \"Invalid signature\";\n        }\n        return \"\";\n    }\n\n    /** @dev Submimt a claim meta transaction\n     */\n    function claimMetaTransaction(\n        bytes32 _goodID,\n        address _finder,\n        string memory _descriptionLink,\n        uint8 v, bytes32 r, bytes32 s){\n        Good storage good = goods[_goodID];\n        string memory errorReason = validateClaimMetaTransaction(_goodID, _finder, _descriptionLink, v, r, s);\n        if (bytes(errorReason).length > 0) {\n            revert(errorReason);\n        }\n        _claim(good.addressForEncryption, _goodID, _finder, _descriptionLink);\n    }\n\n    /** @dev Accept a claim a good.\n     *  @param _goodID The index of the good.\n     *  @param _claimID The index of the claim.\n     */\n    function acceptClaim(bytes32 _goodID, uint _claimID) payable public {\n        Good storage good = goods[_goodID];\n\n        require(good.owner == msg.sender, \"The sender of the transaction must be the owner of the good.\");\n        require(good.rewardAmount <= msg.value, \"The ETH amount must be equal or higher than the reward\");\n\n        good.amountLocked += msg.value; // Locked the fund in this contract.\n        goodIDtoClaimAcceptedID[_goodID] = _claimID; // Adds the claim in the claim accepted collection.\n    }\n\n    /** @dev Accept a claim a good.\n     *  @param _goodID The index of the good.\n     *  @param _claimID The index of the claim .\n     */\n    function removeClaim(bytes32 _goodID, uint _claimID) public {\n        Good storage good = goods[_goodID];\n\n        require(good.owner == msg.sender, \"The sender of the transaction must be the owner of the good.\");\n        require(claims[_claimID].goodID == _goodID, \"The claim of the good must matched with the good.\");\n        require(\n            0 == goodIDtoClaimAcceptedID[_goodID],\n            \"The claim must not be accepted\"\n        );\n\n        delete good.claimIDs[_claimID]; // Removes this claim in the claim collection for this good.\n    }\n\n    /** @dev Pay finder. To be called if the good has been returned.\n     *  @param _goodID The index of the good.\n     *  @param _amount Amount to pay in wei.\n     */\n    function pay(bytes32 _goodID, uint _amount) public {\n        Good storage good = goods[_goodID];\n        Claim storage goodClaim = claims[goodIDtoClaimAcceptedID[_goodID]];\n\n        require(good.owner == msg.sender, \"The caller must be the owner of the good.\");\n        require(goodClaim.status == Status.NoDispute, \"The transaction of the good can't be disputed.\");\n        require(\n            _amount <= good.amountLocked,\n            \"The amount paid has to be less than or equal to the amount locked.\"\n        );\n\n        // Checks-Effects-Interactions to avoid reentrancy.\n        address finder = goodClaim.finder; // Address of the finder.\n\n        finder.transfer(_amount); // Transfer the fund to the finder.\n        good.amountLocked -= _amount;\n        if (good.amountLocked == 0) {\n            delete good.claimIDs[goodIDtoClaimAcceptedID[_goodID]];\n            delete claims[goodIDtoClaimAcceptedID[_goodID]];\n        }\n        // NOTE: We keep the others claims because maybe the owner lost several goods with the same `goodID`.\n    }\n\n    /** @dev Reimburse owner of the good. To be called if the good can't be fully returned.\n     *  @param _goodID The index of the good.\n     *  @param _amountReimbursed Amount to reimburse in wei.\n     */\n    function reimburse(bytes32 _goodID, uint _amountReimbursed) public {\n        Good storage good = goods[_goodID];\n        Claim storage goodClaim = claims[goodIDtoClaimAcceptedID[_goodID]];\n\n        require(goodClaim.finder == msg.sender, \"The caller must be the finder of the good.\");\n        require(goodClaim.status == Status.NoDispute, \"The transaction good can't be disputed.\");\n        require(\n            _amountReimbursed <= good.amountLocked,\n            \"The amount paid has to be less than or equal to the amount locked.\"\n        );\n\n        address owner = good.owner; // Address of the owner.\n\n        owner.transfer(_amountReimbursed);\n\n        good.amountLocked -= _amountReimbursed;\n    }\n\n    /** @dev Transfer the transaction's amount to the finder if the timeout has passed.\n     *  @param _goodID The index of the good.\n     */\n    function executeTransaction(bytes32 _goodID) public {\n        Good storage good = goods[_goodID];\n        Claim storage goodClaim = claims[goodIDtoClaimAcceptedID[_goodID]];\n\n        require(goodClaim.goodID == _goodID, \"The claim of the good must matched with the good.\");\n        require(now - goodClaim.lastInteraction >= good.timeoutLocked, \"The timeout has not passed yet.\");\n        require(goodClaim.status == Status.NoDispute, \"The transaction of the claim good can't be disputed.\");\n\n        goodClaim.finder.transfer(good.amountLocked);\n        good.amountLocked = 0;\n\n        goodClaim.status = Status.Resolved;\n    }\n\n\n    /* Section of Negociation or Dispute Resolution */\n\n    /** @dev Pay the arbitration fee to raise a dispute. To be called by the owner. UNTRUSTED.\n     *  Note that the arbitrator can have createDispute throw,\n     *  which will make this function throw and therefore lead to a party being timed-out.\n     *  This is not a vulnerability as the arbitrator can rule in favor of one party anyway.\n     *  @param _goodID The index of the transaction.\n     */\n    function payArbitrationFeeByOwner(bytes32 _goodID) public payable {\n        Good storage good = goods[_goodID];\n        Claim storage goodClaim = claims[goodIDtoClaimAcceptedID[_goodID]];\n\n        uint arbitrationCost = arbitrator.arbitrationCost(arbitratorExtraData);\n\n        require(\n            goodClaim.status < Status.DisputeCreated,\n            \"Dispute has already been created or because the transaction of the good has been executed.\"\n        );\n        require(goodClaim.goodID == _goodID, \"The claim of the good must matched with the good.\");\n        require(good.owner == msg.sender, \"The caller must be the owner of the good.\");\n        require(0 != goodIDtoClaimAcceptedID[_goodID], \"The claim of the good must be accepted.\");\n\n        good.ownerFee += msg.value;\n        // Require that the total paid to be at least the arbitration cost.\n        require(good.ownerFee >= arbitrationCost, \"The owner fee must cover arbitration costs.\");\n\n        goodClaim.lastInteraction = now;\n        // The finder still has to pay. This can also happen if he has paid, but arbitrationCost has increased.\n        if (goodClaim.finderFee < arbitrationCost) {\n            goodClaim.status = Status.WaitingFinder;\n            emit HasToPayFee(uint(_goodID), Party.Finder);\n        } else { // The finder has also paid the fee. We create the dispute\n            raiseDispute(_goodID, arbitrationCost);\n        }\n    }\n\n    /** @dev Pay the arbitration fee to raise a dispute. To be called by the finder. UNTRUSTED.\n     *  Note that this function mirrors payArbitrationFeeByFinder.\n     *  @param _goodID The index of the good.\n     */\n    function payArbitrationFeeByFinder(bytes32 _goodID) public payable {\n        Good storage good = goods[_goodID];\n        Claim storage goodClaim = claims[goodIDtoClaimAcceptedID[_goodID]];\n        uint arbitrationCost = arbitrator.arbitrationCost(arbitratorExtraData);\n\n        require(\n            goodClaim.status < Status.DisputeCreated,\n            \"Dispute has already been created or because the transaction has been executed.\"\n        );\n        require(goodClaim.goodID == _goodID, \"The claim of the good must matched with the good.\");\n        require(goodClaim.finder == msg.sender, \"The caller must be the sender.\");\n        require(0 != goodIDtoClaimAcceptedID[_goodID], \"The claim of the good must be accepted.\");\n\n        goodClaim.finderFee += msg.value;\n        // Require that the total pay at least the arbitration cost.\n        require(goodClaim.finderFee >= arbitrationCost, \"The finder fee must cover arbitration costs.\");\n\n        goodClaim.lastInteraction = now;\n\n        // The owner still has to pay. This can also happen if he has paid, but arbitrationCost has increased.\n        if (good.ownerFee < arbitrationCost) {\n            goodClaim.status = Status.WaitingOwner;\n            emit HasToPayFee(uint(_goodID), Party.Owner);\n        } else { // The owner has also paid the fee. We create the dispute\n            raiseDispute(_goodID, arbitrationCost);\n        }\n    }\n\n    /** @dev Reimburse owner of the good if the finder fails to pay the fee.\n     *  @param _goodID The index of the good.\n     */\n    function timeOutByOwner(bytes32 _goodID) public {\n        Good storage good = goods[_goodID];\n        Claim storage goodClaim = claims[goodIDtoClaimAcceptedID[_goodID]];\n\n        require(\n            goodClaim.status == Status.WaitingFinder,\n            \"The transaction of the good must waiting on the finder.\"\n        );\n        require(now - goodClaim.lastInteraction >= feeTimeout, \"Timeout time has not passed yet.\");\n\n        executeRuling(goodIDtoClaimAcceptedID[_goodID], uint(RulingOptions.OwnerWins));\n    }\n\n    /** @dev Pay finder if owner of the good fails to pay the fee.\n     *  @param _goodID The index of the good.\n     */\n    function timeOutByFinder(bytes32 _goodID) public {\n        Good storage good = goods[_goodID];\n        Claim storage goodClaim = claims[goodIDtoClaimAcceptedID[_goodID]];\n\n        require(\n            goodClaim.status == Status.WaitingOwner,\n            \"The transaction of the good must waiting on the owner of the good.\"\n        );\n        require(now - goodClaim.lastInteraction >= feeTimeout, \"Timeout time has not passed yet.\");\n\n        executeRuling(goodIDtoClaimAcceptedID[_goodID], uint(RulingOptions.FinderWins));\n    }\n\n    /** @dev Create a dispute. UNTRUSTED.\n     *  @param _goodID The index of the good.\n     *  @param _arbitrationCost Amount to pay the arbitrator.\n     */\n    function raiseDispute(bytes32 _goodID, uint _arbitrationCost) internal {\n        Good storage good = goods[_goodID];\n        Claim storage goodClaim = claims[goodIDtoClaimAcceptedID[_goodID]];\n\n        goodClaim.status = Status.DisputeCreated;\n        uint disputeID = arbitrator.createDispute.value(_arbitrationCost)(AMOUNT_OF_CHOICES, arbitratorExtraData);\n        disputeIDtoClaimAcceptedID[disputeID] = goodIDtoClaimAcceptedID[_goodID];\n        emit Dispute(arbitrator, goodClaim.disputeID, uint(_goodID), uint(_goodID));\n\n        // Refund finder if it overpaid.\n        if (goodClaim.finderFee > _arbitrationCost) {\n            uint extraFeeFinder = goodClaim.finderFee - _arbitrationCost;\n            goodClaim.finderFee = _arbitrationCost;\n            goodClaim.finder.send(extraFeeFinder);\n        }\n\n        // Refund owner if it overpaid.\n        if (good.ownerFee > _arbitrationCost) {\n            uint extraFeeOwner = good.ownerFee - _arbitrationCost;\n            good.ownerFee = _arbitrationCost;\n            good.owner.send(extraFeeOwner);\n        }\n    }\n\n    /** @dev Submit a reference to evidence. EVENT.\n     *  @param _goodID The index of the good.\n     *  @param _evidence A link to an evidence using its URI.\n     */\n    function submitEvidence(bytes32 _goodID, string memory _evidence) public {\n        Good storage good = goods[_goodID];\n        Claim storage goodClaim = claims[goodIDtoClaimAcceptedID[_goodID]];\n\n        require(\n            msg.sender == good.owner || msg.sender == goodClaim.finder,\n            \"The caller must be the owner of the good or the finder.\"\n        );\n\n        require(goodClaim.status >= Status.DisputeCreated, \"The dispute has not been created yet.\");\n        emit Evidence(arbitrator, uint(_goodID), msg.sender, _evidence);\n    }\n\n    /** @dev Appeal an appealable ruling.\n     *  Transfer the funds to the arbitrator.\n     *  Note that no checks are required as the checks are done by the arbitrator.\n     *  @param _goodID The index of the good.\n     */\n    function appeal(bytes32 _goodID) public payable {\n        Claim storage goodClaim = claims[goodIDtoClaimAcceptedID[_goodID]];\n\n        require(\n            msg.sender == goods[goodClaim.goodID].owner || msg.sender == goodClaim.finder,\n            \"The caller must be the owner of the good or the finder.\"\n        );\n\n        arbitrator.appeal.value(msg.value)(goodClaim.disputeID, arbitratorExtraData);\n    }\n\n    /** @dev Give a ruling for a dispute. Must be called by the arbitrator.\n     *  The purpose of this function is to ensure that the address calling it has the right to rule on the contract.\n     *  @param _disputeID ID of the dispute in the Arbitrator contract.\n     *  @param _ruling Ruling given by the arbitrator. Note that 0 is reserved for \"Not able/wanting to make a decision\".\n     */\n    function rule(uint _disputeID, uint _ruling) public {\n        require(msg.sender == address(arbitrator), \"The sender of the transaction must be the arbitrator.\");\n\n        Claim storage goodClaim = claims[disputeIDtoClaimAcceptedID[_disputeID]]; // Get the claim by the dispute id.\n\n        require(Status.DisputeCreated == goodClaim.status, \"The dispute has already been resolved.\");\n\n        emit Ruling(Arbitrator(msg.sender), _disputeID, _ruling);\n\n        executeRuling(disputeIDtoClaimAcceptedID[_disputeID], _ruling);\n    }\n\n    /** @dev Execute a ruling of a dispute. It reimburses the fee to the winning party.\n     *  @param _claimID The index of the claim.\n     *  @param _ruling Ruling given by the arbitrator. 1 : Reimburse the owner of the good. 2 : Pay the finder.\n     */\n    function executeRuling(uint _claimID, uint _ruling) internal {\n        require(_ruling <= AMOUNT_OF_CHOICES, \"Invalid ruling.\");\n        Claim storage goodClaim = claims[disputeIDtoClaimAcceptedID[_claimID]];\n        Good storage good = goods[goodClaim.goodID];\n\n        // Give the arbitration fee back.\n        // Note that we use send to prevent a party from blocking the execution.\n        if (_ruling == uint(RulingOptions.OwnerWins)) {\n            good.owner.send(good.ownerFee + good.amountLocked);\n        } else if (_ruling == uint(RulingOptions.FinderWins)) {\n            goodClaim.finder.send(goodClaim.finderFee + good.amountLocked);\n        } else {\n            uint split_amount = (good.ownerFee + good.amountLocked) / 2;\n            good.owner.send(split_amount);\n            goodClaim.finder.send(split_amount);\n        }\n\n        delete good.claimIDs[disputeIDtoClaimAcceptedID[_claimID]];\n        good.amountLocked = 0;\n        good.ownerFee = 0;\n        goodClaim.finderFee = 0;\n        goodClaim.status = Status.Resolved;\n    }\n\n    // **************************** //\n    // *     View functions       * //\n    // **************************** //\n\n    function isGoodExist(bytes32 _goodID) public view returns (bool) {\n        return goods[_goodID].exists;\n    }\n}\n",
  "sourcePath": "/home/hellwolf/Projects/decentralee/recoverto-contracts/contracts/Recover.sol",
  "compiler": {
    "name": "solc",
    "version": "0.4.25+commit.59dbf8f1.Emscripten.clang"
  },
  "schemaVersion": "3.0.2",
  "updatedAt": "2019-02-28T12:41:29.124Z",
  "devdoc": {
    "methods": {
      "acceptClaim(bytes32,uint256)": {
        "details": "Accept a claim a good.",
        "params": {
          "_claimID": "The index of the claim.",
          "_goodID": "The index of the good."
        }
      },
      "addGood(bytes32,address,string,uint256,uint256)": {
        "details": "Add good.",
        "params": {
          "_addressForEncryption": "Link to the meta-evidence.",
          "_descriptionEncryptedLink": "Time after which a party can automatically execute the arbitrable transaction.",
          "_goodID": "The index of the good.",
          "_rewardAmount": "The recipient of the transaction.",
          "_timeoutLocked": "Timeout after which the finder can call the function `executePayment`."
        }
      },
      "appeal(bytes32)": {
        "details": "Appeal an appealable ruling. Transfer the funds to the arbitrator. Note that no checks are required as the checks are done by the arbitrator.",
        "params": {
          "_goodID": "The index of the good."
        }
      },
      "changeAddressAndDescriptionEncrypted(bytes32,address,string)": {
        "details": "Change the address used to encrypt the description link and the description.",
        "params": {
          "_addressForEncryption": "Time after which a party can automatically execute the arbitrable transaction.",
          "_descriptionEncryptedLink": "The recipient of the transaction.",
          "_goodID": "The index of the good."
        }
      },
      "changeRewardAmount(bytes32,uint256)": {
        "details": "Change the reward amount of the good.",
        "params": {
          "_goodID": "The index of the good.",
          "_rewardAmount": "The amount of the reward for the good."
        }
      },
      "changeTimeoutLocked(bytes32,uint256)": {
        "details": "Change the reward amount of the good.",
        "params": {
          "_goodID": "The index of the good.",
          "_timeoutLocked": "Timeout after which the finder can call the function `executePayment`."
        }
      },
      "claim(bytes32,address,string)": {
        "details": "Claim a good.",
        "params": {
          "_descriptionLink": "The link to the description of the good (optionnal).",
          "_finder": "The address of the finder.",
          "_goodID": "The index of the good."
        }
      },
      "claimMetaTransaction(bytes32,address,string,uint8,bytes32,bytes32)": {
        "details": "Submimt a claim meta transaction"
      },
      "executeTransaction(bytes32)": {
        "details": "Transfer the transaction's amount to the finder if the timeout has passed.",
        "params": {
          "_goodID": "The index of the good."
        }
      },
      "pay(bytes32,uint256)": {
        "details": "Pay finder. To be called if the good has been returned.",
        "params": {
          "_amount": "Amount to pay in wei.",
          "_goodID": "The index of the good."
        }
      },
      "payArbitrationFeeByFinder(bytes32)": {
        "details": "Pay the arbitration fee to raise a dispute. To be called by the finder. UNTRUSTED. Note that this function mirrors payArbitrationFeeByFinder.",
        "params": {
          "_goodID": "The index of the good."
        }
      },
      "payArbitrationFeeByOwner(bytes32)": {
        "details": "Pay the arbitration fee to raise a dispute. To be called by the owner. UNTRUSTED. Note that the arbitrator can have createDispute throw, which will make this function throw and therefore lead to a party being timed-out. This is not a vulnerability as the arbitrator can rule in favor of one party anyway.",
        "params": {
          "_goodID": "The index of the transaction."
        }
      },
      "reimburse(bytes32,uint256)": {
        "details": "Reimburse owner of the good. To be called if the good can't be fully returned.",
        "params": {
          "_amountReimbursed": "Amount to reimburse in wei.",
          "_goodID": "The index of the good."
        }
      },
      "removeClaim(bytes32,uint256)": {
        "details": "Accept a claim a good.",
        "params": {
          "_claimID": "The index of the claim .",
          "_goodID": "The index of the good."
        }
      },
      "resetClaims(bytes32)": {
        "details": "Reset claims for a good.",
        "params": {
          "_goodID": "The ID of the good."
        }
      },
      "rule(uint256,uint256)": {
        "details": "Give a ruling for a dispute. Must be called by the arbitrator. The purpose of this function is to ensure that the address calling it has the right to rule on the contract.",
        "params": {
          "_disputeID": "ID of the dispute in the Arbitrator contract.",
          "_ruling": "Ruling given by the arbitrator. Note that 0 is reserved for \"Not able/wanting to make a decision\"."
        }
      },
      "submitEvidence(bytes32,string)": {
        "details": "Submit a reference to evidence. EVENT.",
        "params": {
          "_evidence": "A link to an evidence using its URI.",
          "_goodID": "The index of the good."
        }
      },
      "timeOutByFinder(bytes32)": {
        "details": "Pay finder if owner of the good fails to pay the fee.",
        "params": {
          "_goodID": "The index of the good."
        }
      },
      "timeOutByOwner(bytes32)": {
        "details": "Reimburse owner of the good if the finder fails to pay the fee.",
        "params": {
          "_goodID": "The index of the good."
        }
      }
    }
  },
  "userdoc": {
    "methods": {}
  }
}